:020000040800F2
:10000000984F00209D010008D328000829260008E9
:10001000D12800088D0B0008D52D00080000000035
:1000200000000000000000000000000005010008C2
:100030008F0B00080000000049010008B5290008E6
:10004000B7010008B7010008B7010008B7010008B0
:10005000B7010008B7010008B7010008B7010008A0
:10006000B7010008B7010008B7010008B701000890
:10007000B7010008B7010008B7010008B701000880
:10008000B7010008B7010008B7010008B701000870
:10009000B7010008B7010008B7010008910B00087C
:1000A000B7010008B7010008B7010008B701000850
:1000B000B7010008B70100085D2A0008B701000871
:1000C000B7010008B7010008B7010008B701000830
:1000D000B7010008B7010008C92D0008B7010008E2
:1000E000B7010008B7010008B7010008DFF810D019
:1000F00000F0D0FC0048004761440008AFF30080E6
:10010000984F0020224B19680868B0E8F00F80F380
:100110000988BFF36F8F4FF0000080F311884EF015
:100120000D0E70470000000006480068006880F36C
:10013000088862B661B6BFF34F8FBFF36F8F00DFE1
:1001400000BF00BF08ED00E0EFF30980BFF36F8F41
:100150000F4B1A6820E9F00F106008B54FF05000FF
:1001600080F31188BFF34F8FBFF36F8F06F03CF918
:100170004FF0000080F31188BDE808401968086856
:10018000B0E8F00F80F30988BFF36F8F704700BFAE
:1001900098000020EFF30580704700000648804774
:1001A00006480047FEE7FEE7FEE7FEE7FEE7FEE75C
:1001B000FEE7FEE7FEE7FEE7592A0008ED0000082B
:1001C000202A04DB203A21FA02F00021704721FAAC
:1001D00002F3D040C2F12002914008431946704713
:1001E00040EA01039B0703D009E008C9121F08C0B9
:1001F000042AFAD203E011F8013B00F8013B521E39
:10020000F9D27047D2B201E000F8012B491EFBD2AF
:1002100070470022F6E710B513460A460446194611
:10022000FFF7F0FF204610BD30B505462A460B46C5
:1002300012F8010B13F8014B08B1A042F8D01CB121
:10024000002802D06D1CF1E7284630BD421C10F892
:10025000011B0029FBD1801A7047F0B480EA01022B
:10026000D40F4200B2EB410F02D2024608461146BB
:100270004A0042D0C30DDDB2C1F3C752AD1A202DE2
:1002800035DAC1F3160141F4000204B15242C5F15E
:10029000200602FA06F12A411044B3EBD05F23D0C6
:1002A000C4B1012DA0EBC35009DCF0BC4FF00042FB
:1002B00002EAC352DBB200F5000000F008BB4000C8
:1002C00000F1807000EBC350A0F1807040EAD17063
:1002D000490009E0490841EAC071A0EBC35000F5AC
:1002E0000000400800EBC350F0BC00F0E7BA6142E8
:1002F000012202EB4101001BF6E7F0BC704781F0E0
:100300000041AAE780F00040A7E780EA010210B5AB
:1003100002F00043400022D04A001FD0010E01EB42
:100320001261C0F35600C2F3560240F4000042F4DA
:100330000002A0FB022000047F39140400D0401CFE
:1003400050EA124001D44000491EC2B20C0604EB30
:10035000D010401C4008802A02D003E0002010BDCD
:1003600020F00100002900DA0020184310BD30B44D
:1003700080EA010202F0004530F0004221F0004026
:1003800013D090B1C30DD40DC2F31601C0F3160003
:10039000E41A41F4000140F400027D34914201D39B
:1003A000641C00E04900002C02DA30BC00207047D9
:1003B0004FF400000023914201D3891A03434008FF
:1003C0004FEA4101F7D151B1914202D14FF00041C2
:1003D00005E002D24FF0010101E06FF0010103EBF3
:1003E000C450284430BC00F069BA420005D0C0F3C4
:1003F000C7525242914201DC0020704700EBC150CD
:1004000070472DE9FE4F804681EA0300C00F0C467D
:10041000009021F0004123F00045B8EB0200A94113
:1004200005D24046214690461C460B46024623F024
:100430000040104347D0270DC7F30A00C3F30A5109
:100440000290401A019040286BDAC3F3130040F485
:10045000801B0098924620B10023D2EB030A63EB85
:100460000B0B01985946C0F14002504600F005FAC6
:1004700006460D4650465946019A00F00DFA10EB1B
:1004800008006141002487EA115284EAE7731A43A5
:1004900040D0009A62B3019A012A4FEA075215DC54
:1004A000001B61EB02014FF0004202EA0752CDE966
:1004B0000042001C41F5801132462B4600F044FA00
:1004C00003B0BDE8F08F40462146F9E7001B61EB21
:1004D0000201001C41F5801300185B412018A2F5B1
:1004E000001747EB030140EAD570B6196D4111E0E2
:1004F0006D084FEA360645EAC0754FEA0752001B01
:1005000061EB0201001C41F5801149084FEA3000FF
:100510000019514132462B4603B0BDE8F04F00F0C0
:1005200004BA0098012240000023D0EB020263EBE2
:10053000E073009821464FEAE074B8EB000061EBED
:100540000401E9E783F000435BE781F0004158E7ED
:100550002DE9FE4F81EA030404F0004421F000413C
:1005600000944FF0000B23F0004350EA01045ED0EA
:1005700052EA03045BD0C3F30A54C1F30A552C4476
:10058000A4F2F3340194A0FB0254C1F3130141F42B
:100590008011C3F3130343F4801301FB024400FBF7
:1005A000034E840A970A44EA815447EA8357A4FB1E
:1005B000076802958D0A05FB07854FEA932C04FB1B
:1005C0000C542705029D4FEA065847EA1637B5EB4B
:1005D00008056EEB070C870E920E47EA811742EA78
:1005E0008312A7FB0201B6EB0B0164EB00042B0D99
:1005F00043EA0C335E1844EB1C50DA465146E7FBE5
:100600000201C5F313044FEA0B3343EA14534FEAD4
:100610000432019C43EA0603A4F10C040294009CFA
:10062000CDE900B400F090F903B0BDE8F08F0020F0
:100630000146F9E72DE9F04D81EA030404F0004B8F
:1006400021F0004514464FF0000A23F0004150EA23
:10065000050220D054EA01021DD0C5F30A57024614
:10066000C5F31303C1F31300C1F30A5640F4801518
:1006700043F48013A7EB0608101BD64608F2FD389A
:1006800073EB050002D308F1010801E092185B4109
:10069000B8F1000F03DA00200146BDE8F08D00201C
:1006A0004FF48011064684460EE0171B73EB0507D6
:1006B00005D3121B63EB050306434CEA010C490802
:1006C0004FEA300092185B4150EA0107EDD152EA3F
:1006D000030012D082EA040083EA0501084305D032
:1006E000101BAB4106D20122002306E000224FF08E
:1006F000004302E06FF0010253101AEB06004CEBCE
:10070000085110EB0A0041EB0B01BDE8F04D00F081
:100710000CB996230022114600F0D9B80EB540F26C
:10072000334102910021CDE900110A460B4600F049
:100730000BF903B000BD20F00040C10DC0F316005E
:1007400040F400007F2901DA00207047962903DC7D
:10075000C1F19601C840704796398840704700F053
:10076000004230F000400AD0C10D01F56071C0F3C5
:10077000160042EA0151C2084007114370470020A9
:100780000146704730B5041E71F1000404DB4FF0E0
:100790000044404264EB0101141E73F1000405DBC8
:1007A0001C464FF00043524263EB04038B4208BFE8
:1007B000824230BD01F0004330B421F0004150EAE4
:1007C000010206D00A0DA2F56072C1F31301002ADE
:1007D00002DC30BC00207047440F44EAC104C10071
:1007E000E01830BC00EBC25000F068B830B50B46E2
:1007F000014600202022012409E021FA02F59D4251
:1008000005D303FA02F5491B04FA02F52844151E24
:10081000A2F10102F1DC30BD2DE9F05F05460020B8
:1008200092469B4688460646814640241BE0284661
:10083000414647462246FFF7C3FC53465A46C01A74
:10084000914110D311461846224600F016F82D1A91
:1008500067EB01084F4622460120002100F00DF809
:1008600017EB00094E41201EA4F10104DFDC4846CD
:1008700031462A464346BDE8F09F202A04DB203A51
:1008800000FA02F1002070479140C2F1200320FAE3
:1008900003F3194390407047202A06DBCB17203A18
:1008A00041FA02F043EAE07306E041FA02F3D04075
:1008B000C2F1200291400843194670470029A8BFA1
:1008C0007047401C490008BF20F00100704710B479
:1008D000B0FA80FC00FA0CF050EA010404BF10BC2E
:1008E000704749B1CCF1200421FA04F411FA0CF15B
:1008F00018BF012121430843A3EB0C01CB1D4FEA94
:1009000000614FEA102042BF002010BC704700EB8E
:10091000C35010440029A4BF10BC7047401C4900BC
:1009200008BF20F0010010BC704710B5141E73F111
:10093000000408DA401C41F1000192185B411A439F
:1009400001D120F0010010BD2DE9F04D92469B46EB
:1009500011B1B1FA81F202E0B0FA80F22032904691
:10096000FFF78BFF04460F4640EA0A0041EA0B01FD
:1009700053465A46084313D0114653EA010019D092
:10098000C8F140025046FFF71BFC05460E46504694
:1009900059464246FFF771FF084305D0012004E0A5
:1009A00020463946BDE8F08D0020054346EAE07652
:1009B0002C4337430A986305E40AA0EB08000022A1
:1009C000FD0A44EA47540A3002D500200146E9E70F
:1009D000010510196941DDE9084500196941BDE8C3
:1009E000F04DA2E770B521F0004303430CD0C1F3F2
:1009F0000A550024D5EB040564EB0403D617AD1AA1
:100A0000B34102DB0020014670BD201841EB0251CA
:100A100070BD0EB5C10F80EAE0700844CA0700211E
:100A200040F233438DE80E000A460B46FFF78CFF79
:100A300003B000BDC1F30A52C1F3130140F2FF330A
:100A400041F480119A4202DA00200146704740F2D8
:100A500033439A42A2F2334202DC5242FFF7B0BB68
:100A6000FFF70BBF30B5041E71F1000404DB4FF03B
:100A70000044404264EB0101141E73F1000405DBE5
:100A80001C464FF00043524263EB0403994208BFF7
:100A9000904230BD064C074D06E0E06840F001038F
:100AA00094E8070098471034AC42F6D3FFF722FBD6
:100AB00088730008A873000870B504460068816850
:100AC000C943C90717D1816821F00101816000F095
:100AD00041FC05460AE000BF00F03CFC401B022838
:100AE00004D920688068C043C00706D020688068A9
:100AF000C043C007F0D0002070BDA06A40F01000D5
:100B0000A062E06A40F00100E062012070BD0000D8
:100B1000F8B500260446009600688168C943C907F5
:100B20002DD0816841F001018160164816490068A6
:100B3000B0FBF1F000E0401E00900028FBD100F077
:100B400009FC054616E000BF00F004FC401B02282B
:100B500010D920688068C043C0070BD0A06A40F05D
:100B60001000A062E06A40F00100E06284F82460B6
:100B70000120F8BD20688068C043C007E4D1002090
:100B8000F8BD00009400002040420F00FEE77047CF
:100B90004FF4807000F0D8BA72B6FEE7F8B50024C2
:100BA000009490F824202546012A12D0012280F8D2
:100BB00024204A681F23072A0DD20668776B521E2D
:100BC00002EB820293409F430B6893401F4377637D
:100BD00019E00220F8BD06680D2A0AD2376BD21F31
:100BE00002EB820293409F430B6893401F4337639D
:100BF00009E0F76A0D3A02EB820293409F430B68CB
:100C000093401F43F7620A68072306680A2A0AD33B
:100C1000F7680A3A02EB420293409F438B68934085
:100C20001F43F76008E0376902EB420293409F439D
:100C30008B6893401F4337610A68102A01D0112A3C
:100C400020D1124B02689A4217D193681B0219D423
:100C5000936843F4000393600968102912D10C498A
:100C60000C4A0968B1FBF2F101EB8101490000E097
:100C7000491E00910029FBD104E0816A41F0200166
:100C80008162012480F824502046F8BD00240140F0
:100C90009400002040420F000068C06C70470000C4
:100CA0002DE9F0414FF0000704003D467ED0A06AD8
:100CB000002628B9E66284F82460204600F07EF819
:100CC0002046FFF7F9FEA16AC90600D420B1A06A48
:100CD00040F01000A06269E0A16A21F4885141F05F
:100CE0000201A1626268E169237B0A4347EA43018A
:100CF0000A43A1684FF48077B94209D0012907D08F
:100D00005FF0000194F814C0BCF1010F02D00AE0BA
:100D10003946F7E7F3B1A36A43F02003A362E36A1D
:100D200043F00103E3622368D3F804C02CF4694C58
:100D30004CEA010CC3F804C021688B68DFF870C06E
:100D400003EA0C0313438B60A168B9420BD001295D
:100D500009D00CE0DFF85CC0A3690CEB43330B4314
:100D600043F40061DFE7218A0D05A5F580152168B0
:100D7000CB6A23F470032B43CB62216889680E4B46
:100D80001940914208D1E662A16A21F0020141F0C6
:100D90000101A162BDE8F081A06A20F0020040F0EC
:100DA0001000A062E06A40F00100E0620120F1E77B
:100DB000FDF7E1FF00E0FFFFFE0E1FFF00B585B06D
:100DC0000021009101910291039100680E4988422F
:100DD00017D10E48816941F400718161816901F484
:100DE00000710491816941F0040181618069694663
:100DF00000F004000490032000900190044800F0EB
:100E0000AFF905B000BD0000002401400010024011
:100E1000000801402DE9F84300270D4604460097DD
:100E200000F098FA804620688168C90508D5A06A54
:100E300040F02000A06284F824700120BDE8F8830F
:100E40004168C90503D4C06A10F4700F2AD002208B
:100E500000F03EFB3B490968B1FBF0F620680369EE
:100E600039490B424FEA61014FEAA1121FD1C36811
:100E70004FEA611C13EA0C0F19D103690B4225D10B
:100E8000C068104222D1142023E0681C0AD02DB182
:100E900000F060FAA0EB0800A84203D920680068BF
:100EA000800725D5206800688007EED52DE003690E
:100EB0000B4202D1C168114206D0026923490A429D
:100EC00006D1C068084203D1542002E0292000E086
:100ED000FC204643009816E0681C11D02DB100F0AC
:100EE00039FAA0EB0800A8420AD90098B04207D20C
:100EF000A06A40F00400A06284F8247003209DE7FB
:100F00000098401C0090B042E6D321686FF01200B8
:100F10000860A06A40F40070A06220688068C0F396
:100F2000424007280CD1207B50B9A06A20F4807081
:100F3000A062A06AC00403D4A06A40F00100A062CD
:100F400000207BE794000020244992244992240049
:100F500070B5044690F8240001280DD0012084F8D3
:100F600024002046FFF7D4FD02004FF0000005D01A
:100F700084F82400104670BD022070BDA16A40F2C2
:100F80000123994341F48071A1621F4D23681F49D9
:100F9000AB4218D10E6816F4702F14D0A66A46F42E
:100FA0008016A6620E68760505D5A66A26F4005658
:100FB00046F48056A662A66AF6040AD5E66A26F0CA
:100FC0000606E66206E0A66A26F48016A6625E6859
:100FD000E9E7E06284F824006FF0020018602068FE
:100FE0008368C3F34243072B05D1A84208D109689F
:100FF00011F4702F04D0816841F480118160B9E749
:10100000816841F4A001F9E700280140042401406F
:1010100010B5044690F82400012807D0012084F878
:1010200024002046FFF748FD10B107E0022010BD64
:10103000A16A21F4885141F00101A162002184F8E4
:10104000241010BD10B590F821100022022905D0FF
:101050000421816380F82020012010BD01680B6805
:1010600023F00E030B6001680B6823F001030B6093
:1010700090F84030C46B012101FA03F3636080F8FB
:10108000211080F82020104610BD000010B590F807
:1010900021100024022903D00421816301243DE0B2
:1010A00001680A6822F00E020A6001680A6822F0EC
:1010B00001020A601A4A0168914201D1012121E02E
:1010C000174A1432914201D110211BE0144A2832F0
:1010D000914201D1891515E0114A3C32914201D16A
:1010E00089140FE00E4A5032914202D14FF4803100
:1010F00008E00B4A6432914202D14FF4801101E0C2
:101100004FF08071064A083A5160012180F82110A1
:10111000002180F82010416B01B18847204610BDA6
:101120000800024010B5C00509D505A001F054FE25
:10113000044901200870BDE8104004F04FBC10BD08
:101140002D2D000058000020044910B50A68024205
:1011500002D00860FFF7E6FF10BD00001404014054
:101160002DE9F84FDFF8B8910024A9F1040B2346CC
:101170000F2709F1040AABF1040EC9E00125A540CF
:101180002A40AA427DD1674ED1F804C0ACEB0608D4
:10119000B44532D014DCBCF1030F3AD009DCBCF109
:1011A000000F2AD0BCF1010F1CD0BCF1020F31D1CD
:1011B0001DE0BCF1110F17D0BCF1120F2AD119E0BC
:1011C000B8F5881F19D006DCB8F5803F15D0B8F502
:1011D000801F1FD111E0B8F5001F0ED0B8F5041F15
:1011E00018D10AE0CB6815E0CB681B1D12E0CB6874
:1011F00008330FE0CB680C330CE08B682BB1012B6C
:101200004FF0080303D0456104E0042302E00561C8
:1012100000E00023FF2A01D8064601E000F10406A1
:101220004FEA840501D9A5F12005D6F8008007FA18
:1012300005FC28EA0C0803FA05F548EA0508C6F893
:1012400000804D68ED0062D5374DAE6946F001066D
:10125000AE61AD6924F0030605F001050095334D3C
:1012600006EB050CDCF80850A607360F07FA06F85F
:1012700025EA0805DFF8B880404503D14FF00008A3
:1012800017E044E0DFF8AC80404502D14FF00108A0
:101290000FE0DFF8A480404502D14FF0020808E0DB
:1012A000DFF89880404502D14FF0030801E04FF08D
:1012B000040808FA06F848EA0508CCF808804D68E2
:1012C000D9F80060ED024D4601D5164300E0964383
:1012D0002E604D68DAF80060AD02554601D5164320
:1012E00000E096432E604D68DBF80060AD035D467C
:1012F00001D5164300E096432E604D68DEF800608D
:10130000ED03754601D5164300E096432E60641C3C
:101310000D682A46E5407FF431AFBDE8F88F000044
:1013200008040140000011100010024000000140BC
:1013300000080140000C0140001001400014014071
:101340008068084000D0012070470AB101617047F1
:101350000904FBE70148806870470000880000200E
:10136000024881680278114481607047880000203B
:10137000074810B5016841F010010160032000F03A
:1013800095F8002000F006F800F03EF8002010BDAF
:101390000020024000B5014687B000221E2000F068
:1013A00065F81E2000F054F81348C16941F00401AB
:1013B000C161C06905A900F004000690684600F00C
:1013C000E5F900F003FA0D494000B0FBF1F10D48DA
:1013D0000B4A491E0260416040F2E7320021C0E939
:1013E0000321816000F03EFD10B1012007B000BD77
:1013F000044800F079FDF9E70010024040420F0078
:10140000000800401C0900200F4808B5816941F020
:1014100001018161816901F001010091C16941F01F
:101420008051C161C069002200F0805000900F21FE
:10143000901E00F01BF80548416821F0E06141F082
:101440000071416008BD0000001002400000014032
:10145000002809DB00F01F020121914040098000B3
:1014600000F1E020C0F8001170470000F0B40E4B0E
:101470001B680C46C3F30223C3F10705042D00D9F2
:101480000425191D072901D2002300E0DB1E0126D7
:1014900006FA05F1491E214099409E40761E1640ED
:1014A0003143F0BC01F0A8BC0CED00E0064900F0AF
:1014B000070208684FF6FF03184040EA0220034A7B
:1014C00010430860704700000CED00E00000FA05D2
:1014D00010B501460020234C012922D0022939D021
:1014E00010291DD161682268D20119D51E48C1F3A7
:1014F0008342C903805C0AD561681B4AC1F340413D
:10150000921E515C194AB2FBF1F1484301E01849BF
:1015100048436168490203D440000321B0FBF1F065
:1015200010BD226AC2F30121012903D1920701D51E
:10153000C80310BD022905D1626A920702D549F697
:10154000404010BD0329FCD121688903F9D54FF231
:10155000244010BD00F04AF96168C1F38131491C93
:101560004900DBE700100240C072000800127A0058
:1015700000093D002DE9F84305460078354CC007C9
:1015800054D0E0690026C00008D4E06940F08050E3
:10159000E061E069012600F0805000902E4801686B
:1015A000C90512D40168804641F480710160FFF7DB
:1015B000D1FE074605E000BFFFF7CCFEC01B642844
:1015C00023D8D8F80000C005F6D5206A10F4407082
:1015D00021D0A98801F4407181421CD0206A1F49A2
:1015E000012220F440700A6000220A602062C007D5
:1015F00011D0FFF7AFFE074641F2883808E000BF80
:10160000FFF7A8FEC11B414502D90320BDE8F883BE
:10161000206A8007F4D5206A696820F44070084386
:1016200020621EB1E06920F08050E06128788007D8
:1016300005D56068A96820F44040084360602878B8
:10164000C00605D56068E96820F480000843606042
:101650000020DBE7001002400070004040044242DE
:101660002DE9F0470F46050061D0434E306800F089
:101670000700B84209D2306820F0070038433060D4
:10168000306800F00700B84251D128683B4C810710
:1016900012D5400703D5606840F4E06060602878A8
:1016A000000703D5606840F4605060606068A96816
:1016B00020F0F000084360602878C00728D06868F0
:1016C000012810D02168022810D0890700292EDABD
:1016D000616821F0030101436160FFF73BFE804632
:1016E00041F288390DE021688903EFE78901EDE7D0
:1016F000FFF730FEA0EB0801494502D90320BDE801
:10170000F0876068696800F00C00B0EB810FEFD1E2
:10171000306800F00700B8420BD9306820F00700AD
:1017200038433060306800F00700B84201D0012033
:10173000E5E72878400705D56068E96820F4E060AF
:10174000084360602878000706D56068296920F49E
:10175000605040EAC100606000F058F86168084AD3
:10176000C1F30311515CC84006490860064800688F
:10177000FFF710FE0020C2E70020024000100240E8
:10178000D0720008940000208C0000200F2202601C
:101790000C4A536803F003034360536803F0F003FB
:1017A0008360536803F4E063C36052684FF4E063FE
:1017B00003EAD20202610448006800F007000860F2
:1017C0007047000000100240002002400448054914
:1017D00000684968044AC1F30221515CC84070475F
:1017E0009400002000100240E072000804480549FF
:1017F00000684968044AC1F3C221515CC84070477F
:101800009400002000100240E07200080E4A516867
:101810000E4801F00C03042B11D0082B0FD10C48FB
:10182000C1F38343C903C05C0AD55168084AC1F3B8
:101830004041921E515C054A5043B0FBF1F07047A5
:1018400004494843704700000010024000127A002B
:10185000AE72000800093D002DE9F84F040070D079
:101860002078C04DC00749D06868C0F381000128C6
:1018700007D06868C0F38100022809D16868C003F6
:1018800006D52868800339D560680028E7D035E0A0
:101890006068B0F5803F0BD010B1B0F5A02F11D02B
:1018A000286820F480302860286820F4802002E036
:1018B000286840F480302860606890B1FFF74AFDE6
:1018C00006460AE0286840F480202860F0E700BF60
:1018D000FFF740FD801B642873D828688003F7D584
:1018E0000CE0FFF737FD064605E000BFFFF732FDCD
:1018F000801B6428F0D828688003F7D420789A4E9B
:1019000080074FF001094FF0000839D5686810F0E2
:101910000C0F07D06868C0F38100022809D16868FD
:10192000C00306D42868800714D52069012808D18F
:1019300010E02069B0B1C6F80090FFF70BFD074634
:1019400005E00AE1FFF706FDC01B0228C4D828689D
:101950008007F7D52868616920F0F80040EAC100E7
:1019600028600DE0C6F80080FFF7F4FC074604E0AD
:10197000FFF7F0FCC01B022823D828688007F7D4A3
:10198000207800072CD57948A169D9B1C0F800901A
:10199000FFF7E0FC074604E0FFF7DCFCC01B022871
:1019A0000FD8686A8007F7D571484FF4FA5100687C
:1019B000B0FBF1F0009000BF0098411E0091FAD2F8
:1019C0000EE080E0C0F80080FFF7C4FC074604E0AA
:1019D000FFF7C0FCC01B022875D8686A8007F7D4DF
:1019E0002078400760D5E8690027C00008D4E8697E
:1019F00040F08050E861E869012700F080500090D5
:101A00005C480168C90513D40168834641F48071BC
:101A10000160FFF79FFC824606E000BFFFF79AFCDB
:101A2000A0EB0A0064284ED8DBF80000C005F5D50D
:101A3000E06801280AD008B1052813D0286A20F0F0
:101A400001002862286A20F0040002E0286A40F0C1
:101A500001002862E06841F2883B98B1FFF77AFC08
:101A600082460BE0286A40F004002862EEE700BFDF
:101A7000FFF770FCA0EB0A0159455AD8286A800785
:101A8000F6D50CE0FFF766FC824605E0FFF762FC46
:101A9000A0EB0A0159454CD8286A8007F6D41FB13B
:101AA000E86920F08050E861E06988B36968C1F3B3
:101AB0008101022944D00228C6F8608004D0FFF7D3
:101AC00049FC044638E034E0FFF744FC074604E0F4
:101AD000FFF740FCC01B02282BD828688001F7D4F0
:101AE000206AB0F5803F05D16868A16820F4003015
:101AF00008436860D4E908010843696821F4741157
:101B000008436860C6F86090FFF724FC044606E0CE
:101B100025E000BFFFF71EFC001B022809D828683B
:101B20008001F7D51BE000BFFFF714FC001B022863
:101B300002D90320BDE8F88F28688001F4D40EE0B4
:101B40000128F7D06868226A00F48031914204D1FC
:101B5000616A00F47010884201D00120EAE7002099
:101B6000E8E70000001002400000424280044242C8
:101B7000940000200070004070B5040009D0606A35
:101B8000002540B125616561A56294F8510040B11E
:101B90000CE0012070BD6068B0F5827FF4D0E56193
:101BA000F2E784F85050204600F040F8022084F814
:101BB00051002068016821F040010160A08821895E
:101BC00000F4827001F404410843A18901F400612A
:101BD0000843217C01F002010843217D01F001014D
:101BE0000843218B01F400710843217F01F0380183
:101BF000084394F8201001F080010843218D01F47E
:101C00000051084321680860A069042101EA1040DE
:101C1000216848602068C16921F40061C16165657F
:101C2000012084F85100002070BD000000B585B08F
:101C30000021009101910291039100680F498842AF
:101C40001AD10F48816941F480518161816901F4A1
:101C500080510491816941F0040181618069694684
:101C600000F004000490A0200090022001900320C6
:101C700003900448FFF774FA05B000BD003001403E
:101C800000100240000801402DE9F84F044690F88A
:101C900050000026984615468A4601280CD0012798
:101CA00084F85070FFF756FB814694F85100B34614
:101CB000012804D002269AE00220BDE8F88FBAF18C
:101CC000000F6FD0002D6DD0032084F85100C4F8B0
:101CD00054B0C4F830A0A586E586C4F838B0A4F89E
:101CE0003CB0A4F83EB0C4F844B0C4F840B0A0681A
:101CF000B0F5004F09D12068016821F04001016072
:101D00002068016841F4804101602068016849064B
:101D100003D4016841F040010160E068B0F5006F54
:101D2000606803D058B3012D29D049E008B1012DD6
:101D30001FD1206B21680088C86006E02068816898
:101D4000890709D5216B0988C160206B801C20633D
:101D5000E08E401EE0860CE0FFF7FCFAA0EB0901E4
:101D6000414503D3B8F1FF3F03D006E0B8F1000FBF
:101D700003D0E08E0028E1D125E0032635E0206B7A
:101D800021680078087306E02068816889070AD511
:101D9000216B09780173206B401C2063E08E401E8C
:101DA000E0860DE01FE0FFF7D5FAA0EB0901414501
:101DB00003D3B8F1FF3F03D0DFE7B8F1000FDCD069
:101DC000E08E0028E0D14A464146204600F082FDE0
:101DD00008B120206065A06818B92068C1688068D3
:101DE0000090606D08B1012601E084F8517084F81C
:101DF00050B0304661E770477047000070B590F80A
:101E00003C20012A26D0012480F83C40022280F8A0
:101E10003D2003685A689D6822F070060A683243C4
:101E20005A600D4B02689A4208D0B2F1804F05D03B
:101E30000A4B9A4202D00A4B9A4204D1496825F0D3
:101E400080031943916080F83D40002180F83C10E8
:101E5000084670BD022070BD002C01400004004007
:101E60000008004010B5040003D094F83D0010B104
:101E700007E0012010BD002084F83C00204600F05F
:101E80001FF8022084F83D00211D206800F0ECFDC1
:101E9000012084F8460084F83E0084F83F0084F86E
:101EA000400084F8410084F8420084F8430084F83C
:101EB000440084F8450084F83D00002010BD000077
:101EC00008B500680649884208D10648816941F48E
:101ED00000618161806900F40060009008BD00002D
:101EE000002C01400010024090F83D10012901D063
:101EF00001207047022180F83D100168CA6842F055
:101F00000102CA6000680B49884208D0B0F1804FD6
:101F100005D00949884202D00849884204D1816825
:101F200001F00701062903D0016841F001010160B9
:101F300000207047002C01400004004000080040D1
:101F400070B5044690F83C000025012817D0012602
:101F500084F83C60022084F83D002068826822F00A
:101F6000770222F47F4282600868502838D00DDC66
:101F700020284FD005DC90B3102811D14AE0022070
:101F800070BD302846D040280AD13BE060282FD0D1
:101F900070280DD0B0F5805F03D0B0F5005F12D08F
:101FA000012584F83D60002084F83C00284670BD7F
:101FB000CB68D1E90121206800F08CFD20688168A0
:101FC00041F0770109E0CB68D1E90121206800F0F8
:101FD00081FD2068816841F480418160E1E719E07A
:101FE000CA684968206800F087FD5021206806E033
:101FF000CA684968206800F090FD6021206800F000
:1020000073FDCEE7CA684968206800F075FD40217D
:102010002068F4E7226801461046F0E7704770B583
:102020000446006801694FF00005C943890715D4CB
:10203000C168C943890711D4E91E016101202077D5
:10204000206880698007204602D0FFF7E7FF04E0A0
:1020500000F098F8204600F096F82577206801698E
:10206000C943490717D4C168C943490713D46FF05E
:1020700004010161022020772068806910F4407F0C
:10208000204602D0FFF7CAFF04E000F07BF82046AC
:1020900000F079F8257720680169C943090716D44B
:1020A000C168C943090712D46FF008010161042017
:1020B00020772068C0698007204602D0FFF7AEFF76
:1020C00004E000F05FF8204600F05DF82577206816
:1020D0000169C943C90617D4C168C943C90613D4E5
:1020E0006FF010010161082020772068C06910F4AA
:1020F000407F204602D0FFF791FF04E000F042F855
:10210000204600F040F8257720680169C943C907D7
:1021100008D1C168C943C90704D1891E016120469D
:1021200000F032F820680169C943090609D4C16882
:10213000C943090605D46FF0800101612046FFF70D
:102140005AFE20680169C943490609D4C168C943D8
:10215000490605D46FF040010161204600F01EF8E9
:1021600020680169C94389060BD4C168C94389063F
:1021700007D46FF0200101612046BDE87040FFF7F1
:102180003BBE70BD7047704700680349884201D16B
:10219000FFF7E6B87047000000080040704770473E
:1021A00070470000F8B5016804460868CA684B69C2
:1021B00010F00F0F4FF0000559D003F0010602F4A4
:1021C0009077374365D0C10705D0D10503D5616C41
:1021D00041F001016164410705D5D90703D0616C65
:1021E00041F002016164810705D5D90703D0616C14
:1021F00041F004016164010707D502F02001314379
:1022000003D0616C41F008016164616C00293AD02F
:10221000800604D5900602D5204600F0BFFC206859
:102220004069616CC0F38010090700D460B3204698
:1022300000F08DFC20684069400621D520681430EC
:1022400050E8001F21F0400140E80012002AF5D1BB
:10225000E06BA8B16D494163E06BFEF717FF002802
:1022600011D0E06B416B01B0BDE8F0400847830638
:102270000FD593060DD52046BDE8F84000F08EBC82
:102280002046FFF78DFFF8BD2046FFF789FF656404
:10229000F8BD266B2023012E7CD1C6067AD5D60642
:1022A00078D508684868009048694FF002064006F3
:1022B00040D5E16B086840680004000CE8D0A28DAE
:1022C0008242E5D9E085886920282DD020680C302D
:1022D00050E8001F21F4807140E80012002AF5D177
:1022E0002068143050E8001F21F0010140E800127E
:1022F000002AF5D12068143050E8001F21F0400179
:1023000040E80012002AF5D184F8423025632068A5
:102310000C3050E8001F21F0100140E80012002AA4
:10232000F5D1E06BFEF78EFE6663A08DE18D401A5D
:1023300081B22AE0A08DE18D401A81B2E08D0028A3
:10234000A6D00029A4D022680C3252E8000F20F455
:10235000907042E80007002FF5D12068143050E853
:10236000002F22F0010240E80027002FF5D184F869
:102370004230256320680C3050E8002F22F0100214
:1023800040E80023002BF5D166632046FFF707FFE6
:10239000F8BDFFE705062BD5150629D594F84100B1
:1023A0002128F5D1A068B0F5805F01D12069B0B1D6
:1023B000206A411C2162216800784860E08C401E40
:1023C0000004000CE084E3D12068C16821F08001A2
:1023D000C1602068C16841F04001C160D8E7206A4F
:1023E0000088C0F308004860206A801C2062E5E78E
:1023F0004006CDD55006CBD5CA68204622F0400213
:10240000CA6084F8413000F00EF9C1E73F2B0008A4
:1024100070B5040004D094F84100002510B106E026
:10242000012070BD84F84050204600F023F824209D
:1024300084F841002068C16821F40051C160204641
:1024400000F00EFC2068016921F4904101612068D0
:10245000416921F02A0141612068C16841F40051BD
:10246000C1606564202084F8410084F842006563FF
:10247000002070BD70B586B00024009401940294D1
:1024800003942B4E03682B49022003222A4DB342AA
:1024900021D18B6943F480438B618B6903F48043C2
:1024A00004938B6943F004038B618969039201F003
:1024B000040104910102CDE9001069462846FEF7A7
:1024C0004FFE2815CDE90004694628460294FEF720
:1024D00047FE06B070BD194EB342FAD1CB6943F442
:1024E0000033CB61CB6903F4003304938B6943F071
:1024F00004038B618969039201F0040104910421B2
:10250000CDE9001069462846FEF72AFE0820CDE9ED
:102510000004694628460294FEF722FE00220521A7
:102520002620FEF7A3FF2620FEF792FFD1E700004A
:102530000038014000100240000801400044004003
:1025400090F84230202B01D00220704721B11AB1FF
:102550000023036300F0E0BB0120704710B5006862
:10256000074988420AD10748007803F0E5FBBDE837
:102570001040012203490448FFF7E2BF10BD0000EC
:102580000044004004000020D40800202DE9F84356
:10259000044690F841001F4616460D46202802D0FA
:1025A0000220BDE8F8837DB176B10020606421206F
:1025B00084F84100FEF7CEFEA6848046E684A0683B
:1025C000B0F5805F02D003E00120EAE7206910B196
:1025D0002E4600250EE000260CE08021204600F06B
:1025E000B6FBA0B9AEB116F8010B21684860E08CCB
:1025F000401EE084E08C43464FF000020097002824
:10260000EBD14FF04001204600F0A1FB30B1032098
:10261000C7E735F8020BC0F30800E6E7202084F88E
:1026200041000020BDE77047FEE70000FEB5002531
:10263000174800950195154902950160891581603B
:10264000057301240475022606614FF4602145607C
:10265000C0E90641FEF724FB08B1FEF79DFA07200A
:102660000095CDE9014069460948FEF797FA08B19F
:10267000FEF792FACDE9004669460548FEF78EFA64
:10268000002801D0FEF788FAFEBD000000240140BA
:10269000BC07002000B587B01C2206496846FDF73C
:1026A0009FFD0021684602F025F80349086007B045
:1026B00000BD000078720008000000202DE9F04302
:1026C00085B00024354800940194029403948169F4
:1026D00041F020018161816901F02001049181694B
:1026E00041F004018161816901F004010491816973
:1026F00041F0080181618069DFF8A48000F00800E2
:10270000049000224FF6C1714046FEF71EFE0122E2
:1027100002214046FEF719FEDFF888904FF400676B
:10272000002239464846FEF710FE102001258DE8AC
:10273000310069464846FEF713FD0320CDE9000548
:102740000226CDE9025669464046FEF709FD4FF6DE
:10275000C070CDE90005CDE9024669464046FEF766
:10276000FFFC280200901048CDE901046946484664
:10277000FEF7F6FC00970396CDE9015469464846FA
:10278000FEF7EEFC002205211720FEF76FFE172052
:10279000FEF75EFE05B0BDE8F083000000100240C9
:1027A000000C01400008014000001110114810B554
:1027B0000F4901604FF4827141604FF40041816024
:1027C0000021C1604FF400720161C0E905120822C6
:1027D000C0E90721416281620A21C162FFF7CCF999
:1027E000002803D0BDE81040FEF7D6B910BD0000A8
:1027F00000300140EC07002010B586B000241748D7
:102800000094019402940394049413490594016084
:102810004721C0E901144FF6FF71C0E90314446178
:102820008461FFF71FFB08B1FEF7B6F94FF4805043
:10283000009069460948FFF783FB08B1FEF7ACF941
:10284000049404A905480594FFF7D8FA002801D09C
:10285000FEF7A2F906B010BD002C0140440800208C
:102860000C4810B50A4901604FF4E1314160002184
:1028700081600C22C160C0E904128161C161FFF76F
:10288000C7FD002803D0BDE81040FEF785B910BD94
:10289000003801408C0800200C4810B50A4901603E
:1028A0004FF4E1314160002181600C22C160C0E938
:1028B00004128161C161FFF7ABFD002803D0BDE8C0
:1028C0001040FEF769B910BD00440040D408002054
:1028D000FEE7FEE738B50B46009204460022802151
:1028E00000F008F8002804D0606D40F0200060651A
:1028F000032038BD2DE9F8431E469146884604461C
:10290000089DFEF727FD401B351AFEF723FD0746FD
:1029100025480068C0F3CB30684338E0701C37D0DE
:10292000FEF718FDC01BA84203D215B1009860B392
:102930002CE02068416821F0E00141606068B0F55A
:10294000827F0BD1A068B0F5004F02D0B0F5806F48
:1029500004D12068016821F040010160A06AB0F54F
:10296000005F09D12068016821F4005101602068EE
:10297000016841F400510160012084F851000020F9
:1029800084F850000320BDE8F8830025401E009025
:102990002068816838EA010004D000214945BDD192
:1029A0000020F0E70121F9E794000020012001F068
:1029B00095FEFBE710B5502080F31188BFF34F8FD1
:1029C000BFF36F8F04F030FA18B104494FF0805014
:1029D0000860002080F3118810BD000004ED00E0C5
:1029E00030B593B028216846FDF713FC14210AA8DE
:1029F000FDF70FFC002501200F951095119501049E
:102A000012958DE8230004904FF4E010CDE90810F2
:102A1000022407946846FEF71FFF08B172B6FEE76E
:102A20000AA90F2081E831004FF48060CDE90D053F
:102A300002210AA8FEF714FE08B172B6FEE74FF4B1
:102A4000004011900F940FA8FEF794FD002801D0CC
:102A500072B6FEE713B030BD704700000148FFF7C3
:102A6000DEBA00001C090020F0B50268164B174CB6
:102A7000174D4FF08047984205D0B84203D0A0428E
:102A800001D0A84203D122F070064A68324398422E
:102A900005D0B84203D0A04201D0A84203D122F40D
:102AA0004074CA6822434C6922F0800222430260CB
:102AB0008A68C2620A688262984201D10969016328
:102AC00001214161F0BD0000002C014000040040E4
:102AD0000008004010B5846842EA032224F47F44D1
:102AE0000A432243826010BD826822F070020A43CA
:102AF00042F007018160704710B5036A046A24F050
:102B000001040462846924F0F00444EA021423F00E
:102B10000A020A438461026210BD10B5036A046AA6
:102B200024F010040462846923F0A00324F47044A8
:102B300044EA023243EA01118261016210BD10B51C
:102B4000406A0021C185C184FFF72AFB10BD0168DE
:102B50000C3151E8002F22F4907241E80023002B41
:102B6000F5D10168143151E8002F22F0010241E84B
:102B70000023002BF5D1016B012909D101680C312B
:102B800051E8002F22F0100241E80023002BF5D17C
:102B9000202180F8421000210163704708B590F8A9
:102BA0004210222901D0022008BD82684FF48053D0
:102BB0009A4201D1016921B1816A9A421BD04AB17E
:102BC0000AE00268816A5268C2F308020A80816AD8
:102BD000891C08E0026972B10268526802F07F0243
:102BE0000A70816A491C8162C18D491E0904090C61
:102BF000C18503D01BE002685268F1E70168CA682A
:102C000022F02002CA600168CA6822F48072CA6099
:102C100001684A6922F001024A61202180F84210CD
:102C200000214163026B012A03D0FFF797FC0020CB
:102C300008BD016301680C3151E8002F22F0100239
:102C400041E80023002BF5D101680A68D20602D5BD
:102C50000A6849680091818DFFF7A1FAE7E7000053
:102C600070B5044600680169E26821F440511143DF
:102C700001612169A0680843616908432168CA6845
:102C800041F20C639A430243CA6020684169A26919
:102C900021F44071114341611E492068884202D1EC
:102CA000FEF7A4FD01E0FEF791FD00EBC00101EB92
:102CB0000012606864218000B2FBF0F3B3FBF1F313
:102CC0006FF018067343B2FBF0F5B2FBF0F605EBBC
:102CD0008305322303EB0515B5FBF1F5B6FBF1F6E1
:102CE00005F0F00505EB0615B2FBF0F6B2FBF0F0CF
:102CF000B0FBF1F06FF01802504306EB800003EBDD
:102D00000010B0FBF1F0216800F00F00284488604B
:102D100070BD00000038014081628285C2850021BB
:102D20004164222180F84210016921B10168CA681A
:102D300042F48072CA6001684A6942F001024A6145
:102D40000068C16841F02001C160002070472DE992
:102D5000F041984617460E460446069D27E0681C3B
:102D600025D02DB1FEF7F6FAA0EB0800A8421ED937
:102D700020680C3050E8001F21F4D07140E80012A8
:102D8000002AF5D12068143050E8001F21F001011D
:102D900040E80012002AF5D1202084F8410084F890
:102DA0004200002084F840000320BDE8F081206844
:102DB000006836EA000004D00020B842CFD00020DE
:102DC000F3E70120F9E700000148FFF7EBB9000045
:102DD000D4080020FEE700000FB4054B10B503A98E
:102DE000044A029800F056F910BC5DF814FB00008C
:102DF000D93900080C0100200907090E002804DB5E
:102E000000F1E02080F80014704700F00F0000F19E
:102E1000E02080F8141D70472DE9F0414F1E00EBB3
:102E2000C7010446D1E9000115461E4637F00602E7
:102E30000DD02A463346FDF78BFB7F1E04EBC703FC
:102E4000D3E90023FDF7DDFA37F00602F1D1022FB6
:102E500025D0042F13D0062F18BFBDE8F0812A46D5
:102E60003346FDF775FBD4E90A23FDF7CAFA2A4673
:102E70003346FDF76DFBD4E90823FDF7C2FA2A4675
:102E80003346FDF765FBD4E90623FDF7BAFA2A4677
:102E90003346FDF75DFBD4E90423FDF7B2FA2A4679
:102EA0003346FDF755FBD4E90223FDF7AAFA2A467B
:102EB0003346FDF74DFBD4E90023BDE8F041FDF7B3
:102EC000A0BA00000022134610460149FDF7B2BB2C
:102ED0000000F03F0122FDF785BD00221346104699
:102EE0001146FDF7A7BB02E008C8121F08C1002A5F
:102EF000FAD170477047002001E001C1121F002A7B
:102F0000FBD17047014908607047000010010020A4
:102F10002DE9FF5F82B00021DDE90430020DDDF80C
:102F200040B0034318D044F61050A2F2FF3242439F
:102F30001514119801281FD0A5EB0B00401C5FEA67
:102F4000000A4FF000064E4FDFF83891B046504669
:102F500015D5CAF1000413E0119801244AA30128F1
:102F600001D16FEA0B010298119AC0E90031C0E962
:102F7000024206B0BDE8F09FCBF10000DFE7044657
:102F80000021404A491842EB0450CDE9001012E0FC
:102F9000E00707D032463B4640464946FDF7D8FA9F
:102FA0008046894632463B4610461946FDF7D0FA20
:102FB00006460F466410002CEAD1DDE90401DDE984
:102FC0000023BAF1000F06DAFDF7C2FA42464B467B
:102FD000FDF7BEFA05E0FDF72DFB42464B46FDF737
:102FE00029FB04460E460022284BFDF73BFD03D883
:102FF0004FF0FF30014607E00022254B20463146C6
:10300000FDF7FFF9FDF716FD102409E0002C0ADB9F
:103010000A220023FDF700FC039B30321A55641E80
:1030200050EA0102F2D1641C039AC4F11103144462
:10303000119A012A03D0012208430DD10AE0084366
:1030400004D000204FF0110B119072E7A3EB0B0599
:103050006D1E0DE05B4504DD4FF0000205F101053A
:1030600004E003DA4FF00002A5F10105002AECD0DC
:1030700002981199C0E90231C0E9004579E70000E2
:10308000000014400000F03F300000000000F0435A
:103090000000E03F2DE9FF4F95B09A46884606466E
:1030A0000025EEE1252877D100242746F94A0121A1
:1030B000039400E0044316F8013F203B01FA03F0BB
:1030C0001042F7D130782A2811D06FF02F033078D2
:1030D000A0F13002092A16D8039A44F0020402EB48
:1030E000820203EB42021044761C0390EFE758F88B
:1030F000042B0392002A03DA504244F40054039054
:1031000044F00204761C30782E2816D116F8010FF0
:1031100044F004042A280DD06FF02F023078A0F17B
:103120003003092B09D807EB870302EB4303C718C9
:10313000761CF3E758F8047B761C30786C280FD0A7
:1031400006DC4C2817D068280DD06A2814D104E07A
:10315000742810D07A280FD10DE044F400140AE04E
:1031600044F4801401E044F440147278824202D1A5
:1031700004F58014761C761C307866280BD013DC9E
:10318000582877D009DC002875D04528F6D0462885
:10319000F4D047281AD193E118E0632835D0642889
:1031A00079D0652812D18BE1702873D008DC6728AC
:1031B000F1D069286FD06E280DD06F2806D1ACE011
:1031C00073282CD0752874D0782853D0524617997C
:1031D00090476D1C54E1C4F30250022809D0032823
:1031E0000DD0D8F8001004280DD00D6008F10408A7
:1031F00046E1D8F80010EA17C1E90052F6E7D8F81E
:1032000000100D80F2E70D70F0E718F8041B8DF840
:10321000001000208DF80100EB46012003E058F873
:1032200004BB4FF0FF3061074FF0000102D40DE006
:1032300009F101018946B9420FDA8145F8DB1BF833
:1032400009100029F4D108E009F101018946814201
:10325000FADB1BF809100029F6D103985346A0EBBE
:10326000090721463846179A00F080FA284400EBF7
:10327000090507E044E008E10DE01BF8010B5246A8
:1032800017999047B9F10109F7D2534621463846BC
:10329000179AF2E039E00A21C4F302524FF0000B12
:1032A0000091022A06D058F8040BC117032A09D04E
:1032B0000AE023E008F1070020F00702F2E802012B
:1032C000904605E000B2C117042A01D140B2C117EF
:1032D000002906DA0A460021404261EB02012D2254
:1032E00002E0220504D52B228DF80420012203E000
:1032F000E20701D02022F7E7914657E00A2100E0DB
:1033000010214FF0000B00910BE010214FF0000B4B
:1033100044F004040827009103E008204FF0000B5C
:103320000090C4F30252022A05D058F8040B002181
:10333000032A08D008E008F1070020F00702F2E8AD
:103340000201904603E080B2042A00D1C0B24FF0DF
:10335000000922072AD53278702A07D0DDF800C08C
:103360008CF0100C5CEA0B0C05D00EE040228DF8BE
:103370000420012208E050EA010306D030238DF832
:1033800004308DF8052002229146009B83F008034B
:1033900053EA0B030AD150EA010201D1620705D5B5
:1033A00030228DF804204FF001097F1E3278582A10
:1033B00004D039A20C920CAA02920BE03BA2F9E7CE
:1033C0005B46009AFDF728FA0C9B9B5C029A521E02
:1033D0000292137050EA0102F2D1029804A9081A6D
:1033E00000F1200B600702D524F4803400E00127AF
:1033F0005F4502DDA7EB0B0000E0002000EB0B01B6
:10340000009003984944401A0390E00306D45346C1
:103410002146179A039800F0A9F90544002706E011
:1034200001A85246C05D179990476D1C7F1C4F45FF
:10343000F6DBE0030CD553462146179A039800F0BB
:1034400095F9054404E030205246179990476D1CC9
:103450000099481E00900029F5DC08E002980299C6
:1034600052460078491C0291179990476D1CBBF198
:103470000001ABF1010BF1DC5BE100F065F9054403
:10348000761C307800287FF40DAE19B02846BDE8D0
:10349000F08F0000092801003031323334353637DF
:1034A0003839616263646566000000003031323390
:1034B0003435363738394142434445460000000030
:1034C000600700D4062708F1070020F00700F0E8A5
:1034D0000223804603F0004C5FEA0C0001D097A065
:1034E00009E0200501D596A005E0E00701D095A0F0
:1034F00001E0AFF24C001390307823F000436528D0
:103500000CD006DC452809D046281DD047287FD19D
:103510003BE0662818D067287AD136E00021112FC9
:1035200001DB112000E0781CCDE9000104A90CA802
:10353000FFF7EEFCDDE90D010C9A4FF0000B07F1EF
:103540000109109200914EE04FF000400097CDE944
:10355000011004A90CA8FFF7DBFCDDE90D020C9BB0
:103560000F994FF0000B91461093009211B9791CFE
:1035700000EB0109B7EB090003D4C0F1FF3B07F1F1
:103580000109A9EB0700019042E0012F00DA0127B1
:103590000021112F01DD112000E03846CDE90001A6
:1035A00004A90CA8FFF7B4FCDDE90D010C9A009109
:1035B0004FF0000BB946109221070FD4009A4A45EC
:1035C00003DA914601E0A9F10109B9F1010F05DD26
:1035D000109AA9F10101515C3029F4D0B84202DA05
:1035E00010F1040F03DA0121CDE9011010E00028E9
:1035F00003DC8344A9EB000102E0411C494500DDE6
:103600008946A0EB0B00401C01904FF00040029057
:10361000200705D40198484502DB4FF0FF300190A8
:1036200000208DF84B0002980DF14B07B0F1004FD0
:1036300025D002200C902B200D90029800280CDA47
:10364000404202902D200D9007E00A210298FDF7DC
:10365000CDF83031029007F8011D0C99481E0C90EE
:103660000029F2DC02980028EFD1791E0D9808702D
:10367000307800F0200040F0450007F8020D11A856
:10368000C01BC01D02901398007800B1012000EB10
:103690000901019801EBE071029801440398401A76
:1036A000401E0390E00306D453462146179A039820
:1036B00000F05CF805441398007818B15246179949
:1036C00090476D1CE00323D553462146179A039873
:1036D00000F04CF805441BE0BBF1000F07DB00983D
:1036E000584504DD1098179910F80B0001E0179960
:1036F00030205246904701980BF1010B401E05F116
:103700000105019004D12E205246179990476D1C57
:10371000B9F10001A9F10109DEDC05E017F8010BA0
:103720005246179990476D1C0299481E0290002935
:10373000F4DC53462146179A03989EE62D000000BC
:103740002B000000200000002DE9F0410446002578
:103750001E461746880404D405E039462020B047A9
:103760006D1C641EF9D52846BDE8F0812DE9F041B5
:10377000044600251E469046C80301D5302700E0C8
:103780002027880404D505E041463846B0476D1C23
:10379000641EF9D52846BDE8F08170B502680026A0
:1037A000134635460AE050F82540944201D222469D
:1037B00002E09C4200D9234626446D1C8D42F2DB78
:1037C000D018301A891EB0FBF1F070BD10B5054855
:1037D000FDF7BEFBBDE810404FF47A710148FDF7DC
:1037E00019BB0000BC0700200D4808B50078002870
:1037F00014D000F003FA01788DF8001041788DF8AC
:10380000011081788DF80210C0788DF803004FF612
:10381000FF73042269460348FEF7B8FE08BD0000A6
:103820005C000020D408002070B5094CE078002826
:103830000DD0C82002F0D0FC064907A0FFF7CCFA53
:103840000025642103482562FCF7E3FCE57070BDA8
:103850005C000020183D0020636C65616E202D2DFA
:103860002D3E25730A000000014900204860704782
:103870005C000020024800214160016081607047C7
:10388000F43C002001490020087070474C000020E3
:103890000448002141610161C160816041600160B3
:1038A00070470000003D00200148806800F06CBFB8
:1038B0004C00002010210148FDF742BD00080140E6
:1038C0000C4B17280AD016280CD015280ED0132818
:1038D0000FD1CAB240211846FDF737BDCAB24FF426
:1038E0000071F8E7CAB24FF48071F4E7CAB28021E0
:1038F000F1E77047000C0140CAB201210148FDF711
:1039000024BD0000000C0140164B1A2810D01B28C3
:1039100012D00E2814D0202816D0212818D019280B
:103920001AD00C281CD1CAB202211846FDF70DBDD1
:10393000CAB24FF48061F8E7CAB24FF40061F4E70D
:10394000CAB24FF48051F0E7CAB24FF40051ECE72D
:10395000CAB24FF48041E8E7CAB24FF40041E4E74D
:1039600070470000000C0140CAB24FF400610148EA
:10397000FDF7EBBC0008014010B51149FCF7F7FC5E
:10398000FCF7EDFE00F0BEFB00220E4BFCF752FEF2
:103990004FF060420C4BFCF734FD02460B46002012
:1039A0000A49FCF747FE4FF0C042094BFCF7CAFD3D
:1039B0000022084BFCF725FDBDE81040FCF7FABEDD
:1039C0000060EA4600DCAE40E1796B3F0000F03F6A
:1039D000661271400000E03F13B54FF6FF730122FD
:1039E00069460248FEF7D2FD00981CBD8C080020F5
:1039F00070B51B484068FCF78CFE1A49FCF785FC43
:103A00006FF00B01FCF7F1FC0646FCF7A8FE05463B
:103A10000C462A46234614A0FFF7DEF92846214625
:103A20004FF06632194BFCF790FD04460D461849DD
:103A30003046FCF76AFCFCF792FE22462B46FCF768
:103A4000F9FDFCF7B7FE0446FCF789FE02460B467B
:103A500010A0FFF7C1F92046BDE87040FFF78CBF0A
:103A600014000020333353404144432074656D708B
:103A70006572617472756520616E616C6F67207626
:103A8000616C7565203D2025660A000066660A4067
:103A900000401C464144432074656D70657261743A
:103AA000727565205274203D2025660A00000000D2
:103AB00070B594B000246D460AAE3048FDF748FA60
:103AC00064212E48FDF7A6F920B92C48FDF7E4F84B
:103AD00045F824002948FDF73BFA64212748FDF703
:103AE00099F920B92548FDF7D7F846F8240023486E
:103AF000FDF78EFA641C0A2CDFDB0A216846FFF70B
:103B00004CFE1F4C0A2120600AA8FFF746FE6060A9
:103B10002068FCF7FEFD1B4D2946FCF7F6FB6FF015
:103B20000B063146FCF761FCFCF719FE02460B461A
:103B300015A0FFF751F96068FCF7EBFD2946FCF78B
:103B4000E4FB3146FCF751FCFCF709FE02460B464C
:103B500017A0FFF741F92068FCF7DBFD2946FCF7C9
:103B6000D4FB3146FCF741FCFCF7E5FD0446034875
:103B7000FDF74EFA14B0204670BD0000BC070020CF
:103B800014000020333353402041444320636861D4
:103B90006E6E656C3020656E642076616C75652094
:103BA0003D202D3E25312E336656200D0A000000A3
:103BB00020414443206368616E6E656C3120656E00
:103BC000642076616C7565203D202D3E25312E33B5
:103BD0006656200D0A00000001480078704700007A
:103BE0005C0000200148D0F8980370476439002039
:103BF00001484068704700005C00002000487047A2
:103C00000500002001484078704700004C0000206B
:103C100001480078704700004C000020EFF3058059
:103C2000002800D00120704770B5534C01254FF695
:103C3000FF76606A401C6062322002F0CDFA607844
:103C4000E0B101281AD0022826D0032824D0042865
:103C500030D005282ED006283AD0072838D008289A
:103C600044D00A2842D00B2850D009284ED00C2826
:103C70004CD00D286DD00E2857D062E03FA0FFF742
:103C8000ABF8A068FCF7E2FA82B233464048A1687C
:103C9000FEF77CFC657054E03EA0FFF79DF8E068FD
:103CA000FCF7D4FA82B233463948E168FEF76EFC7D
:103CB000032038E040A0FFF78FF82069FCF7C6FA30
:103CC00082B2334632482169FEF760FC05202AE0C3
:103CD0003FA0FFF781F86069FCF7B8FA82B233467B
:103CE0002B486169FEF752FC07201CE03DA0FFF75E
:103CF00073F8A069FCF7AAFA82B233462448A16996
:103D0000FEF744FC0A206070A5701AE03AA0FFF7A5
:103D100063F8E069FCF79AFA82B233461C48E1691D
:103D2000FEF734FC0C2060700BE038A0FFF754F86D
:103D3000E069FCF78BFA82B233461548E169FEF779
:103D400025FC617838A0FFF747F8042001F02DFB2F
:103D50006FE7A07808B13AA000E040A0FFF73CF878
:103D60004FF47A7002F038FA00202062BDE870400B
:103D700064214048FCF74DBA5C000020424C453AB3
:103D8000D5FDBDF8C8EB4154C4A3CABD0A0000006C
:103D9000D4080020424C453AD5FDC9E8D6C3737417
:103DA00061747573CEAA3020B9D8B1D5D7B4CCAC74
:103DB000CFD4CABE0A000000424C453AD5FDB2E954
:103DC000D1AFD7B4CCACCAC7B7F1CEAA300A000085
:103DD000424C453AD5FDB2E9D1AFC9E8B1B8C3FB11
:103DE000B3C60A00424C453AD5FDC9E8D6C3C9E876
:103DF000B1B8C3FBB3C60A00424C453AD5FDCDCBA2
:103E0000B3F64154C4A3CABD0A000000424C453A6F
:103E1000424C4520524553455420CDCBB3F6415436
:103E2000C4A3CABD0A000000675F626C655F696E6B
:103E300069745F73746570203D2025640A0000007A
:103E4000C5E4D6C3CDEAB3C92DC7EBD6D8C6F4C9ED
:103E5000E8B1B8CAB9D3C30A00000000C5E4D6C3AC
:103E6000CDEAB3C92DBFC9D2D4D5FDB3A3CAB9D346
:103E7000C30A0000183D00200548002164220160AB
:103E8000C17002701E224270817001717047000083
:103E90000500002001211220FFF72EBD704710B54C
:103EA00000211720FFF70CFD00211620FFF708FD69
:103EB00000211520FFF704FD0021BDE8104013206C
:103EC000FFF7FEBC10B5FFF7EAFF01F0A9FD0021E6
:103ED0001120FFF749FDBDE8104000F01BB810B5F8
:103EE00000F0E4FB01F09CFD01210C20FFF70CFD2C
:103EF0000121BDE810401120FFF736BD10B5FFF7D6
:103F0000B9FC012002F042FB0149086010BD00002D
:103F10000C000020704700001CB516A0FEF75CFFE7
:103F2000FFF7AAFF00F044F8FFF7B4FFFFF7E6FF42
:103F3000FFF74CFCFFF7B2FFFFF7C4FF002401209E
:103F4000CDE90004234680220DA1104802F000FFB5
:103F50000094002380220EA11048019402F0F8FE84
:103F60000220CDE90004C20100230DA10F4802F098
:103F7000EFFE1CBD696E69745F7461736B0A0000AB
:103F80005461736B5265706F72740000355C000889
:103F90005461736B427574746F6E0000815B00082E
:103FA0005461736B5072696E74657200CD5B00086A
:103FB0001CB508490022D1E90001CDE90001012129
:103FC000684600F0C1FB0449486042F2107100F0FD
:103FD000F1FB1CBD9C7200084C00002070B51C4C0D
:103FE0000125207888B90520FFF764FC50B90A2024
:103FF00002F0F2F80520FFF75DFC18B92570FDF717
:10400000A9F960602078002812D00520FFF752FC43
:104010004FF47A7601280CD0FDF79CF96168401ABC
:10402000B04205D96078002802D100F039F86570F7
:1040300070BDFDF78FF961680025401AB04203D9C1
:1040400000F01AF8657001E000F004F8257070BD0A
:104050001C00002010B503A0FEF7BEFE054901209C
:10406000087010BD427574746F6E20B5A5BBF72142
:104070000A00000084000020054910B500204870A7
:1040800004A0FEF7A9FEBDE8104000F0B5BA00009C
:1040900084000020CDA3D6B9D7DFD6BD0A0000002A
:1040A000104810B5417800291BD1012141700EA0A4
:1040B000FEF792FEFFF7A2FD817819B9C0780328B8
:1040C00008D038B1012001F06FF9BDE8104002209E
:1040D00001F06BB908A0FEF77FFEBDE8104000F0CC
:1040E00073BA10BD84000020427574746F6E20B3E3
:1040F000A4B0B4210A000000BFAACABCD7DFD6BD55
:104100000A0000002DE9F04DC84A002490B0914209
:1041100005DA21F00043934201D805D120B110B057
:10412000BDE8F04DFEF7D6BEB1F5801F1BDA53EAAD
:10413000000209D0002911DA0120FEF7E3FE10B0D9
:10414000BDE8F04DFEF7C9BE0220FEF7DBFEFEF72C
:10415000B9FE10B081F00041BDE8F08D6FF035047C
:104160003622FCF73FFC04EB2152C1F31308B0499F
:10417000A2F2FF33414401F4801282F07F6103EB2D
:10418000225281F04051009241EA08010022A94BDD
:10419000FCF7D8F9044608F10200A74EC0F313005B
:1041A0000D467E44032867D2D6E900232046FCF75B
:1041B000E9FA1ED10098002802BFD6E9000110B02C
:1041C000BDE8F08DFCF725FC07460C469B4A9C4B4E
:1041D000FCF7BEF906460D469A4A9B4B38462146E7
:1041E000FCF7B6F910B032462B46BDE8F04DFCF7AF
:1041F00008B94FF05532954B20462946FCF7A8F9EF
:104200000022934BFCF7A1F906460F4622462B46A7
:1042100010461946FCF79CF932463B46FCF798F9E4
:10422000064600980F46F0B1FCF7F3FB80468A463D
:10423000824A834BFCF78CF932463B46FCF785F902
:1042400022462B46FCF77EF905460C467D4A7E4BFE
:1042500040465146FCF77CF910B02A462346BDE89B
:10426000F04DFCF76FB90B4610B032462046294698
:10427000BDE8F04DFCF766B900224FF080432046C0
:10428000FCF7BFF802460B4620462946FCF7D2F958
:1042900006460F460098FCF7BCFBCDE90401324608
:1042A0003B4610463946FCF753F90C9069480C9A86
:1042B0004044019009910B461046FCF749F98246AB
:1042C000024665488B46C8F151080B4608F5D728C9
:1042D00003217844FEF7A0FD52465B46FCF738F90F
:1042E0000A905E480D9152465B4604217844FEF7E1
:1042F00093FD099B0C9AFCF72BF9844601980D9BC2
:1043000040EA080860460A9AFCF77BF88346089161
:10431000B8F1000F4EDD4FF0FF3220462946FCF782
:1043200061FB22462B46FCF713F9804600988A462B
:1043300060B3DDE90401414A414BFCF709F90991F9
:1043400000905A4640465146089BFCF75AF83246C0
:104350003B46FCF7FDF8099B009AFCF752F84246F1
:104360005346FCF7F2F822462B46FCF7EBF80446DE
:104370000D46DDE90401334A334BFCF7E9F810B090
:1043800022462B46BDE8F04DFCF7DCB85A464046C5
:10439000089BFCF736F832463B46FCF7D9F8424614
:1043A0005346FCF7D2F810B022462B46BDE8F04D3C
:1043B000FCF7CBB8009840B3DDE904011F4A204B5D
:1043C000FCF7C6F880468A465A4620462946089B8E
:1043D000FCF7B8F832463B46FCF7BAF8424653467B
:1043E000FCF7B0F822462B46FCF7ACF804460D4625
:1043F000DDE90401134A144BFCF7AAF810B0224679
:104400002B46BDE8F04DFCF79DB80B465A462046BA
:104410002946FCF797F832463B46FCF799F810B06E
:1044200022462B46BDE8F04DFCF78FB80000F07F28
:10443000645F09000000F03F7A310000763C793576
:10444000EF39EA3D0000E0FE422EE63F5555D53FEC
:104450000000E03F86EBF9FF123000001030000052
:10446000FCF786FFFEF7BCFAFEF728F9FEF7DEF848
:10447000FEF79CF9FEF7F4F9FEF70EFAFEF7BCF929
:1044800007A0FEF7A9FC01220C490D48FEF758F8D9
:10449000FFF742FDFEF7FEF800F027F9FEE7000007
:1044A0002D2D2D2D61707020696E69742076312E4E
:1044B000302E392D2D2D2D0A000000000400002083
:1044C000D408002001460020842900D0C81C704771
:1044D00070B5134DA5F10804207815F820101720A9
:1044E000FFF7EEF9207805EB800041781620FFF702
:1044F000E7F9207805EB800081781520FFF7E0F9D7
:10450000207805EB8000C1781320FFF7D9F92078D7
:10451000401CC0B22070082801D30020207070BD5C
:104520002C0000202DE9F0410546254C0027DFF83E
:10453000948041E0224E2078083616F8201017208B
:10454000FFF7BEF9207806EB800041781620FFF7D0
:10455000B7F9207806EB800081781520FFF7B0F9D5
:10456000207806EB8000C1781320FFF7A9F92078A6
:10457000401CC0B22070082800D32770D8F8001063
:104580004F62D8F800100A6842F001020A60D8F8B9
:1045900000004FF47A61426A8A42FCD3016A41F218
:1045A0001112114207D1016A9210114203D1016820
:1045B00021F0010101606D1E002DBBD1BDE8F0812D
:1045C00024000020440800201CB5094C606850B944
:1045D00008490022D1E90001CDE900010121684626
:1045E00000F0B2F86060BDE81C40022100F0E2B8C3
:1045F000240000209472000810B500211720FFF756
:104600005FF900211620FFF75BF900211520FFF765
:1046100057F900211320FFF753F904484068002898
:1046200003D0BDE8104000F0F3B810BD2400002016
:1046300010B50C4690B11AA0FEF7CEFBFFF7DCFFD9
:10464000FFF732F900211120FFF78EF901F0E8F9A8
:1046500001210C20FFF758F9012010BDFFF738FFAA
:10466000FF2C07D0204600F065FF0320FFF75AFF1C
:10467000002010BD0024204600F05CFF0AE0204628
:1046800000F058FF012C03D0032C01D0052C01D1E0
:10469000FFF71EFF641CE4B2062CF0D3E8E700002D
:1046A000B4F2D3A1CDA3D6B90A0000001CB5094CC1
:1046B0000020002260700848D0E90210CDE9001007
:1046C0001146684600F040F844F62061A06000F012
:1046D00071F81CBD4C0000209C72000810B500B998
:1046E000012001F079FD002010BD10B501F030FE71
:1046F000002010BD7FB50D4604464169B0F90800A1
:1047000081B1A16971B1FFF7DDFED4E905128DE831
:104710000700D4E900102B46226902F046FB039003
:1047200004B070BDFFF7CEFE03A9CDE90001208AD9
:104730002B4682B2D4E9001002F00AFB012801D016
:104740000020EDE70398EBE71CB511C86CB1CDE98B
:104750000004012907D0002013460246012109A0C8
:1047600002F012FD1CBD0120F6E70090012907D0E0
:10477000002013460246012102A002F0EBFC1CBD02
:104780000120F6E70000000038B505460024FFF7D9
:1047900045FA08B1822038BD4FF0FF300023009069
:1047A0001A460521284602F037FD012800D0FF24D3
:1047B000204638BD2DE9FC41002507462E460195CF
:1047C0000C0000D10124FFF729FA009690B101AB4B
:1047D00022460921384602F01FFD012812D1019816
:1047E00088B10A494FF080500860BFF34F8FBFF384
:1047F0006F8F08E0002322460421384602F00CFDAA
:10480000012800D0FF252846BDE8FC8104ED00E02A
:104810007CB5002506462C460195FFF7FFF900946C
:10482000A0B101AB00220821304602F0F5FC0128BE
:1048300001D0FF207CBD019888B10A494FF080501B
:104840000860BFF34F8FBFF36F8F08E000231A4655
:104850000321304602F0E0FC012800D0FF25284665
:104860007CBD000004ED00E010B50446FFF7CAF976
:1048700018B114A0FEF7B0FA18E0FFF7BFF980787E
:10488000012815D0FFF7BAF94078412817D91CB193
:10489000FEF7F0FFFEF7A8FF0DA000BFFEF79CFAA1
:1048A000012000F081FD022000F07FFD012010BDFD
:1048B0001CB1FEF7DFFFFEF797FF08A0EEE7002030
:1048C00010BD0000B4F2D3A1B3ACCAB10A0000001D
:1048D000CEC2B6C8D2ECB3A30A000000C8B1D6BDA0
:1048E0000A0000002DE9F041184C0F4605466669A4
:1048F0002068001D01F040FB38B9206890F82C10AA
:1049000001208840A1698143A161681C07D137B1AA
:104910002168BDE8F0410E48091D01F07DBB20680B
:104920003544B5424560216805D2A068BDE8F04134
:10493000091D01F059BB6068091D01F055FB206B92
:10494000854200D22563BDE8F08100009800002078
:10495000983E00202DE9F041054601F069FB2E4C00
:104960002069401C206120682C4F10B1E06940B3E1
:104970002DE025602069012829D1002606EB86005C
:1049800007EB800001F022FB761C072EF6D32348AC
:104990008C3001F01BFB2148A03001F017FB1F48B1
:1049A000B43001F013FB1D48C83001F00FFB1B4869
:1049B000DC3001F00BFB19488C3060601430A060D3
:1049C00005E02068E96AC06A884200D82560E06A8C
:1049D000401CE062E96A0120A26988401043A0619E
:1049E00001EB810007EB8000291D01F015FB01F0B0
:1049F0003FFBE06900280CD02068E96AC06A884261
:104A000007D207494FF080500860BFF34F8FBFF3C4
:104A10006F8FBDE8F081000098000020BC3D0020B1
:104A200004ED00E038B501F003FB104CA068C8B9F4
:104A30000F4801F0CBFA0E48143001F0C7FA0C48C9
:104A40002060143060600A4B00202833009003F18E
:104A500048020C210A2001F0C8FDA06010B105A198
:104A600001F084FBBDE8384001F002BBD400002017
:104A7000AC3E0020546D72510000000030B4026C56
:104A80000B46002A0BD0C1681144C1604468A142A2
:104A900001D30168C16030BC1846FBF7A1BB30BC34
:104AA00070472DE9F041856B174604460026026CDD
:104AB00082B1C7B1E068FBF793FBE168206C091A8B
:104AC000E1602268914202D26168081AE060022F18
:104AD00016D017E02068A8B9606802F009FA064607
:104AE000002060600EE0A068FBF77AFB216CA068F4
:104AF0000844A0606168884204D32068A06001E097
:104B000005B16D1E6D1CA5633046BDE8F08110B582
:104B1000044690F8510058B101280CD002280FD05B
:104B2000502080F31188BFF34F8FBFF36F8FFEE7E4
:104B3000206B01F0B1FA2046BDE8104001F0ACBA9C
:104B400010BD000010484FF44061420706D0C01D60
:104B50000D4920F00700411AC1F540610B4A0023BE
:104B60000144C2E900030839103A21F0070111603D
:104B70004B600B600B1AC0E9001393604FF00040CC
:104B80005360D06070470000943F0020F800002080
:104B9000144E154CA6F1C8074FF08058DFF84C9022
:104BA00012E000BF01F044FAF068C568281D01F06A
:104BB000E3F92069401E2061E068401EE06001F0DA
:104BC00057FA2846FFF7A3FFE0680028EAD13868C3
:104BD0000128F9D9C9F80080BFF34F8FBFF36F8F59
:104BE000F2E70000843E00209800002004ED00E081
:104BF000002807D00021416001600B460A46C160D1
:104C000001F06ABD70470346009829B10260C0E90F
:104C10000F31012101F01CBD0060F8E72DE9F047DC
:104C20009A46DDE9098481466FF00303206B03EBAC
:104C300082021044089D20F00706700707D050201C
:104C400080F31188BFF34F8FBFF36F8FFEE72318F8
:104C50000A5C83F834200A5C12B1401C1028F6D399
:104C6000002784F84370072D00D30625E562C4E9C8
:104C70001157201D01F0B5F904F1180001F0B1F948
:104C80002461C5F107006462A061E76484F8507094
:104C900052464946304600F061FA2060B8F1000FF4
:104CA00001D0C8F80040BDE8F0872DE9F0471E4666
:104CB000DDE9089417460D0080460ED0002C14D074
:104CC000FFF7B0FEC4F80080C4E90657C4E90869DC
:104CD000201DBDE8F04701F084B9502080F3118811
:104CE000BFF34F8FBFF36F8FFEE7BDE8F087000083
:104CF00030B5114900E011460A688242FBD34B6887
:104D00005C18844203D140681844486008464368F0
:104D10001C18944209D1084C103C2468A24209D0C6
:104D200052681A4442600A6812680260814200D0E8
:104D3000086030BD0460F9E7F800002070B5002479
:104D400041600B4D0061914206D8D11A82699142AF
:104D500006D2011D686807E09A4203D2994201D346
:104D6000012403E0011D286801F03EF9204670BDD2
:104D7000D400002010B5044601F05AF9A06B28B108
:104D80005FF0000401F074F9204610BD0124F9E73A
:104D900030B587B02C4D4EE0049800284BDB069CC4
:104DA000606910B1201D01F0E7F802A800F0B8F822
:104DB000024604980A283ED2DFE800F00505053DCA
:104DC000263705053D260598A1690346014420467E
:104DD000FFF7B4FF00B3616A20468847E069012805
:104DE00029D1002000900598A16900234218194696
:104DF000204602F011FA78B9502080F31188BFF3F1
:104E00004F8FBFF36F8FFEE70598A06128B181181F
:104E100013462046FFF792FF0DE0502080F31188E3
:104E2000BFF34F8FBFF36F8FFEE794F8280010B9E0
:104E3000204601F031F9002204A9A86801F0A8FD7C
:104E40000028A9D107B030BDD40000202DE9FC41D5
:104E50000F46054601F0C0FA01A800F061F80446CB
:104E6000019818B102F014F9BDE8FC81224EAFB1EF
:104E700070680068A8B30027291B3A46B06801F0A3
:104E800089F902F005F90028EED11C494FF0805055
:104E90000860BFF34F8FBFF36F8FE5E7A542EBD8F4
:104EA00002F0F6F830682746C068C468201D01F09B
:104EB00063F8E069012810D1A0692B4641193A46F0
:104EC0002046FFF73BFF40B100200346014600901B
:104ED0002A46204602F0A0F920B1616A20468847A0
:104EE000C2E707E0502080F31188BFF34F8FBFF374
:104EF0006F8FFEE70127BFE7D400002004ED00E03C
:104F000006484168096829B14168C968C9684968A3
:104F1000016370474FF0FF31FAE70000980000206E
:104F200070B5054601F07AFF064E044630698442AA
:104F300003D200F009F8012000E00020286020469C
:104F4000346170BDD4000020F8B5194D1FE0C06871
:104F5000C4680668201D01F00FF8616A2046884782
:104F6000E069012813D1A0693044B04206D9246118
:104F70006060211D286801F037F808E00020034632
:104F8000014600903246204602F046F938B12868C2
:104F900001680029DBD16968C5E90010F8BD50201F
:104FA00080F31188BFF34F8FBFF36F8FFEE70000D0
:104FB000D400002008484068401C4FF0500080F3A7
:104FC000118804D0BFF34F8FBFF36F8FFEE7BFF39D
:104FD0004F8FBFF36F8FFEE700010020074C206862
:104FE000016841B1C0680021D0F80000FFF72EFF32
:104FF000FFF7CEFEF3E701210020F7E7D400002001
:105000002DE9F041044601F013F894F9455004F1FC
:10501000240609E0606A48B1304601F0FFFF08B19C
:1050200001F008F96D1E6DB2002DF3DC4FF0FF3674
:1050300084F8456001F01CF800F0FAFF94F9445040
:1050400004F1100709E0206948B1384601F0E6FF95
:1050500008B101F0EFF86D1E6DB2002DF3DC84F89D
:105060004460BDE8F04101F003B800002DE9F041D3
:105070000546002701F0B0F9314E306808B9FFF756
:1050800061FDF06805424BD1C5B3083568070ED005
:1050900005F00700C0F108000544680707D050205C
:1050A00080F31188BFF34F8FBFF36F8FFEE72DB3EF
:1050B0007068854234D82248103001460C6801E0FF
:1050C00020460C466168A94202D221680029F7D126
:1050D00031688C4224D00768216801606068083715
:1050E000411B10290FD96019420708D0502080F3C6
:1050F0001188BFF34F8FBFF36F8FFEE710E0416061
:105100006560FFF7F5FD61687068401A7060B2680D
:10511000904200D2B060F06801430020C4E9000171
:1051200001F0B6FF780707D0502080F31188BFF355
:105130004F8FBFF36F8FFEE73846BDE8F081000068
:10514000E80000200449086818B10868826C521C05
:1051500082640868704700009800002010B5031FA3
:105160004FF080741C601B1F21F001011960191F92
:10517000024B0B60143940380A6010BDB54F00086F
:1051800010B500F007F800F09DF8BDE8104000F001
:1051900061B8000070B5FEF78BFC40006425A0F6F6
:1051A000E44068434FF4617100F5E17090FBF1F465
:1051B000FEF724FD0470FEF721FD0078642802D973
:1051C000FEF71CFD0570FEF719FD0178BDE8704083
:1051D00001A0FDF701BE0000626174746572792060
:1051E0003D2025640A00000070B5134DA5F10804A8
:1051F000207815F820101720FEF762FB207805EBC9
:10520000800041781620FEF75BFB207805EB8000DC
:1052100081781520FEF754FB207805EB8000C178DB
:105220001320FEF74DFB2078401CC0B220700828E8
:1052300001D30020207070BD2C00002004480178AC
:1052400019B1002101700120704700207047000053
:105250005800002010B54FF480710A48FCF770F830
:1052600058B1FEF7CBFC01218170FEF7C7FC8178B5
:10527000BDE8104004A0FDF7AFBDFEF7BFFC002164
:10528000F2E700000008014070617065725F73749E
:10529000617465203D2025640A00000010B503A05C
:1052A000FDF79AFD06490120087010BD7265616422
:1052B0005F7374617465206E6F772E2E2E0D0A0059
:1052C0004C00002010B5FEF793FB0446FBF747FAAD
:1052D00002460B4609A0FDF77FFD0D48844207DB1F
:1052E0002046FBF728FA0446FEF788FC447010BD00
:1052F000FEF784FC0021417010BD000074656D70E4
:1053000065726174757265203D2025660A00000093
:1053100095BFD63310B503A0FDF75EFD0749012008
:10532000487010BDB4A5B7A2B4F2D3A1B3ACCAB152
:10533000B4EDCEF32E2E2E0D0A0000004C000020FE
:1053400070B5164D0A21286801F00CFC012823D104
:105350001348D0F89813C9B1491EC0F89813D0F873
:105360009043611CC0F89013B1F5897F02D90021E8
:10537000C0F8901300231A461946286801F0ACF9CA
:10538000084904EB440001EB001070BD00231A46ED
:105390001946286801F0A0F9002070BD0C0000201B
:1053A0006439002064090020704710B5052841D2F7
:1053B000DFE800F003050B283800002100E00121A0
:1053C000BDE810401220FEF797BA00211220FEF728
:1053D00093FAC82000F000FF01211220FEF78CFA9A
:1053E000C82000F0F9FE00211220FEF785FAC8203F
:1053F00000F0F2FE01211220FEF77EFAC82000F034
:10540000EBFEDAE701211220FEF776FAC82000F061
:10541000E3FE00211220FEF76FFABDE81040C8201D
:1054200000F0DABE00211220FEF766FA0A2000F032
:10543000D3FEC4E710BD000010B5FEF7DFFB044645
:105440000079012815D1E078032800D088B9002020
:1054500020710120E070FEF7C7F9FEF7C3FB01469B
:1054600008A0FDF7B9FC0220FFF79EFF0320FFF71D
:105470009CFFE078012803D100F03EFB0320E070A0
:1054800010BD00007265706F727420646576696388
:105490006520737461747573203A207072696E743C
:1054A000696E672073746172742025640A000000BD
:1054B00010B5FEF7ADFB58B1FEF7E4F9FFF760FE5B
:1054C000FEF78AFB20B108A0FDF786FCFEF78CF9F9
:1054D000FFF7B4FE002806D00DA0FDF77DFCBDE867
:1054E0001040FEF781B910BD7265706F7274206450
:1054F0006576696365207374617475733A7265705B
:105500006F72742074696D652075700A0000000068
:105510007265706F72742064657669636520737458
:1055200061747573203A20706170657220697271C0
:105530000A0000002DE9F05F41F21115DFF8C8A361
:10554000DFF8C893DFF8C8B3AE10F24C062859D282
:10555000DFE800F0035AA6F6F4F301211A20FEF763
:10556000D3F92168002048622068016841F00101F8
:105570000160A046E8480078FBF7D0F800225346C7
:10558000FBF758F804460F465946D9F80000FAF7D9
:1055900064FEFBF7E4F822463B46FAF7D9FF0746DC
:1055A000D8F800000C46406AFBF7B8F83A462346A4
:1055B000FBF7E8F8DED3D8F800004446016A294238
:1055C00006D1016A314203D1016821F00101016075
:1055D00000211A20FEF798F921680020486220680F
:1055E000016841F0010101602068416AC829FCD3CB
:1055F000016A294206D1016A314203D1016821F0D2
:1056000001010160BDE8F09F01211B20FEF77CF93C
:105610002168002048622068016841F001010160B2
:10562000A046BD480078FBF779F800225346FBF707
:1056300001F804460F465946D9F80400FAF70DFE62
:10564000FBF78DF83B462246FAF782FF0446D8F86E
:1056500000000F46406AFBF761F822463B46FBF725
:1056600091F8DED3D8F800004446016A294206D1F9
:10567000016A314203D1016821F00101016000217A
:105680001B20FEF741F9216800204862206801686C
:1056900041F0010101602068416AC829FCD3A7E7F5
:1056A00001210E20FEF730F92168002048622068B1
:1056B000016841F001010160CA46A14696480078A0
:1056C000FBF72CF80022904BFAF7B4FF0C46074684
:1056D0005946DAF80800FAF7C0FDFBF740F83A46F9
:1056E0002346FAF735FF0746D9F800000C46406A12
:1056F000FBF714F83A462346FBF744F8DED3D9F813
:1057000000004C46016A294206D1016A314203D1A8
:10571000016821F00101016000210E20FEF7F4F87C
:105720002168002048622068016841F001010160A1
:105730002068416AC829FCD35AE799E04CE0FFE7AA
:1057400001212020FEF7E0F821680020486220684F
:10575000016841F001010160A0466F480078FAF746
:10576000DDFF00225346FAF765FF0C46074659460F
:10577000D9F80C00FAF771FDFAF7F1FF3A46234623
:10578000FAF7E6FE0746D8F800000C46406AFAF73A
:10579000C5FF3A462346FAF7F5FFDED3D8F80000F6
:1057A0004446016A294206D1016A314203D10168A7
:1057B00021F00101016000212020FEF7A5F82168F9
:1057C000002048622068016841F001010160206802
:1057D000416AC829FCD30BE701212120FEF794F888
:1057E0002168002048622068016841F001010160E1
:1057F000A04649480078FAF791FF00225346FAF78D
:1058000019FF07460C465946D9F81000FAF725FD4E
:10581000FAF7A5FF3A462346FAF79AFE0746D8F864
:1058200000000C46406AFAF779FF3A462346FAF739
:10583000A9FFDED3D8F800004446016A294206D108
:10584000016A314203D1016821F0010101600021A8
:105850002120FEF759F8216800204862206801687D
:1058600041F0010101602068416AC829FCD3BFE60C
:1058700001211920FEF748F82168002048622068BD
:10588000016841F001010160A04623480078FAF761
:1058900045FF00225346FAF7CDFE07460C4659460F
:1058A000D9F81400FAF7D9FCFAF759FF3A4623461B
:1058B000FAF74EFE0746D8F800000C46406AFAF7A1
:1058C0002DFF3A462346FAF75DFFDED3D8F80000F5
:1058D0004446016A294206D1016A314203D1016876
:1058E00021F00101016000211920FEF70DF8216867
:1058F000002048622068016841F0010101602068D1
:10590000416AC829FCD373E600005940003D0020DD
:105910000080224544080020590000202DE9F04174
:105920000746FDF7B5FF254D0024002606EBC40011
:10593000385CFAF7EEFE55F82410FAF78EFC761C68
:10594000F6B245F82400082EF0D30146FAF7DDFC44
:10595000FAF705FF1A4A1B4BFAF7FAFDFAF72AFF86
:1059600045F82400641CE4B2062CDED3302138460E
:1059700000F072F800210C20FDF7C6FF124800214C
:105980000268516201680A6842F001020A60006818
:10599000416A0029FCD0016A41F21112114207D17B
:1059A000016A9210114203D1016821F001010160E6
:1059B000BDE8F04101210C20FDF7A6BF003D00200D
:1059C000FCA9F1D24D62503F44080020002155222D
:1059D0004254491CF029FBD37047000001498870EC
:1059E000704700000500002010B50446014603A0E2
:1059F000FDF7F2F90648047010BD0000B4F2D3A11F
:105A0000C3DCB6C8C9E8D6C32025640A000000007C
:105A1000590000200149087170470000050000206E
:105A200010B500211A20FDF76FFF00211B20FDF7A4
:105A30006BFF00210E20FDF767FF00212020FDF7FE
:105A400063FF00212120FDF75FFF0021BDE810402A
:105A50001920FDF759BF00000A4601464FF6FF73B3
:105A60000148FCF711B90000EC0700202DE9F041D6
:105A70000025174680460C462E46FEF730FA29468A
:105A800012A0FDF7A9F9AF4205D92046FFF746FF5E
:105A90003034303500E0012641463046FEF7C8FD7F
:105AA00038B9FEF7AFF820B90020FEF7DDFE002878
:105AB000E5D009A0FDF790F92820FEF733FDFEF7A9
:105AC0009BFDBDE8F04108A0FDF786B97072696ED4
:105AD0007465722025640A007072696E74657220A4
